:100000000C945D000C9485000C9485000C94850084
:100010000C9485000C9485000C9485000C9485004C
:100020000C9485000C9485000C9485000C9485003C
:100030000C9485000C9485000C9485000C9485002C
:100040000C9486020C9485000C94F6020C94D00259
:100050000C9485000C9485000C9485000C9485000C
:100060000C9485000C9485000000000024002700FB
:100070002A0000000000250028002B0004040404CE
:100080000404040402020202020203030303030342
:10009000010204081020408001020408102001021F
:1000A00004081020000000080002010000030407FB
:1000B00000000000000000006C0411241FBECFEF00
:1000C000D8E0DEBFCDBF22E0ACE5B1E001C01D92BB
:1000D000A630B207E1F711E0A0E0B1E0E6EAFDE00A
:1000E00002C005900D92AC35B107D9F710E0CDE50F
:1000F000D0E004C02197FE010E94D004CC35D10786
:10010000C9F70E9428030C94D1060C940000E8EA79
:10011000F0E02491E4E9F0E09491E0E8F0E0E4918B
:10012000EE23C9F0222339F0233001F1A8F4213065
:1001300019F1223029F1F0E0EE0FFF1FEE58FF4FCA
:10014000A591B4912FB7F894EC91811126C09095A8
:100150009E239C932FBF08952730A9F02830C9F023
:10016000243049F7209180002F7D03C0209180002A
:100170002F7720938000DFCF24B52F7724BDDBCFEE
:1001800024B52F7DFBCF2091B0002F772093B000B6
:10019000D2CF2091B0002F7DF9CF9E2BDACF3FB781
:1001A000F89480915D0190915E01A0915F01B09102
:1001B000600126B5A89B05C02F3F19F00196A11D2F
:1001C000B11D3FBFBA2FA92F982F8827BC01CD01A1
:1001D000620F711D811D911D42E0660F771F881F00
:1001E000991F4A95D1F70895AF92BF92CF92DF92AF
:1001F000EF92FF920F931F93CF93DF936C017B01DC
:100200008B01040F151FEB015E01AE18BF08C0176C
:10021000D10759F06991D601ED91FC910190F081DF
:10022000E02DC6010995892B79F7C501DF91CF91A2
:100230001F910F91FF90EF90DF90CF90BF90AF9004
:100240000895FC01538D448D252F30E0842F90E0DC
:10025000821B930B541710F0CF96089501970895C1
:10026000FC01918D828D981761F0A28DAE0FBF2F8A
:10027000B11D5D968C91928D9F5F9F73928F90E0E0
:1002800008958FEF9FEF08952FB7F8948091610143
:1002900090916201A0916301B09164012FBF80939E
:1002A0006D0190936E01A0936F01B093700185E68C
:1002B00091E00E94300197FF26C02FB7F8948091FB
:1002C000610190916201A0916301B09164012FBF1F
:1002D00040916D0150916E0160916F0170917001BC
:1002E000841B950BA60BB70B4091690150916A01D5
:1002F00060916B0170916C0184179507A607B70791
:10030000B0F28FEF9FEF0895FC01918D828D9817C9
:1003100031F0828DE80FF11D858D90E008958FEF0B
:100320009FEF0895FC01918D228D892F90E0805CD4
:100330009F4F821B91098F739927089585E691E05D
:100340000E94920121E0892B09F420E0822F089578
:1003500080E090E0892B29F00E949E0181110C948D
:1003600000000895FC01A48DA80FB92FB11DA35A58
:10037000BF4F2C91848D90E001968F739927848FC5
:10038000A689B7892C93A089B1898C9183708064E8
:100390008C93938D848D981306C00288F389E02D89
:1003A00080818F7D80830895EF92FF920F931F933A
:1003B000CF93DF93EC0181E0888F9B8D8C8D981318
:1003C0001AC0E889F989808185FF15C09FB7F89424
:1003D000EE89FF896083E889F98980818370806470
:1003E00080839FBF81E090E0DF91CF911F910F91BB
:1003F000FF90EF900895F62E0B8D10E00F5F1F4FCA
:100400000F731127E02E8C8D8E110CC00FB607FCD8
:10041000FACFE889F989808185FFF5CFCE010E9466
:10042000B201F1CFEB8DEC0FFD2FF11DE35AFF4F21
:10043000F0829FB7F8940B8FEA89FB8980818062F4
:10044000CFCFCF93DF93EC01888D8823B9F0AA89B1
:10045000BB89E889F9898C9185FD03C0808186FD7F
:100460000DC00FB607FCF7CF8C9185FFF2CF8081CE
:1004700085FFEDCFCE010E94B201E9CFDF91CF9190
:100480000895CF93DF93FC0101900020E9F73197A5
:10049000AF01481B590BBC0185E691E00E94F400B6
:1004A000EC0142E050E068E171E085E691E00E94F5
:1004B000F4008C0F9D1FDF91CF9108950F931F9330
:1004C000CF93DF93EC0188819981009759F02A81BD
:1004D0003B812617370730F081E0DF91CF911F91E4
:1004E0000F9108958B016F5F7F4F0E94FB0500976E
:1004F00059F0998388831B830A832C813D81232BA8
:1005000059F7FC011082E8CF80E0E7CF1F920F92ED
:100510000FB60F9211242F933F938F939F93AF9316
:10052000BF938091610190916201A0916301B091AC
:10053000640130915C0123E0230F2D3758F50196BB
:10054000A11DB11D20935C01809361019093620114
:10055000A0936301B093640180915D0190915E016D
:10056000A0915F01B09160010196A11DB11D809322
:100570005D0190935E01A0935F01B0936001BF9114
:10058000AF919F918F913F912F910F900FBE0F9040
:100590001F90189526E8230F0296A11DB11DD2CFFA
:1005A0001F920F920FB60F9211242F933F934F93E8
:1005B0005F936F937F938F939F93AF93BF93EF93CB
:1005C000FF9385E691E00E94B201FF91EF91BF9108
:1005D000AF919F918F917F916F915F914F913F91DB
:1005E0002F910F900FBE0F901F9018951F920F9292
:1005F0000FB60F9211242F938F939F93EF93FF9336
:10060000E0917501F09176018081E0917B01F0919C
:100610007C0182FD1BC0908180917E018F5F8F7372
:1006200020917F01821741F0E0917E01F0E0EB59CB
:10063000FE4F958F80937E01FF91EF919F918F9157
:100640002F910F900FBE0F901F9018958081F4CFBF
:10065000CF93DF93CDB7DEB728970FB6F894DEBF00
:100660000FBECDBF789484B5826084BD84B58160AF
:1006700084BD85B5826085BD85B5816085BD80916D
:100680006E00816080936E001092810080918100E5
:1006900082608093810080918100816080938100DD
:1006A000809180008160809380008091B10084609F
:1006B0008093B1008091B00081608093B000809100
:1006C0007A00846080937A0080917A0082608093BF
:1006D0007A0080917A00816080937A0080917A001C
:1006E000806880937A001092C100E0917501F091CA
:1006F000760182E08083E0917101F09172011082B5
:10070000E0917301F09174018FEC808310927D0170
:10071000E0917901F0917A0186E08083E0917701A0
:10072000F0917801808180618083E0917701F09180
:100730007801808188608083E0917701F091780171
:10074000808180688083E0917701F09178018081D9
:100750008F7D80838BE191E00E944102E4E9F0E02B
:100760002491E0E8F0E08491882399F090E0880FEC
:10077000991FFC01E859FF4FA591B491FC01EE5877
:10078000FF4F859194918FB7F894EC91E22BEC9305
:100790008FBF80E00E94870090E0E92E90E0F92E64
:1007A00085E691E00E949201181619060CF05EC0D1
:1007B0001A8219821C821B821E821D8270E060E0F8
:1007C000CE0101960E945E0229813A8181112EC0DC
:1007D0002115310519F0C9010E9472051A8219828A
:1007E0001E821D821C821B820E9444010D811E817B
:1007F00097FD24C08A30910509F18F8318860F5F19
:100800001F4FB801CE0101960E945E02882361F35A
:1008100029813A818D819E81BE01695F7F4F820F60
:10082000931F0E94CA061E830D83DECF1E821D8287
:100830006AE171E0C9010E94CA06D6CF012B09F412
:1008400045C066E371E089819A810E94C106892BC7
:10085000E9F581E00E94870089E391E00E9441026E
:1008600089819A81009711F00E9472050E94CF0041
:100870002B013C0184E6882E912CA12CB12C0E94E6
:10088000CF006419750986099709683E7340810590
:100890009105A8F321E0821A9108A108B10888EE19
:1008A000480E83E0581E611C711C81149104A10440
:1008B000B10429F7E114F10409F472CF0E949E01FA
:1008C000882309F46DCF0E9400006ACF80E00E9467
:1008D00087008AE491E0C2CFE5E6F1E0138212825C
:1008E00088EE93E0A0E0B0E084839583A683B7838D
:1008F0008AE091E09183808385EC90E095878487FE
:1009000084EC90E09787868780EC90E0918B808BD9
:1009100081EC90E0938B828B82EC90E0958B848BC2
:1009200086EC90E0978B868B118E128E138E148E30
:1009300008952F923F924F925F926F927F928F9283
:100940009F92AF92BF92CF92DF92EF92FF920F935E
:100950001F93CF93DF93CDB7DEB7CA1BDB0B0FB668
:10096000F894DEBF0FBECDBF09942A883988488825
:100970005F846E847D848C849B84AA84B984C884BB
:10098000DF80EE80FD800C811B81AA81B981CE0FB2
:10099000D11D0FB6F894DEBF0FBECDBFED01089597
:1009A000EE0FFF1F0590F491E02D09940F931F9314
:1009B000CF93DF938230910510F482E090E0E091D4
:1009C0000402F091050230E020E0B0E0A0E03097B2
:1009D00099F42115310509F44AC0281B390B24303C
:1009E0003105D8F58A819B816115710589F1FB017B
:1009F00093838283FE0111C0408151810281138162
:100A000048175907E0F04817590799F4109761F013
:100A100012960C93129713961C933296CF01DF9186
:100A2000CF911F910F910895009304021093050236
:100A3000F4CF2115310551F04217530738F0A901C1
:100A4000DB019A01BD01DF01F801C1CFEF01F9CF50
:100A50009093050280930402CDCFFE01E20FF31FB5
:100A6000819391932250310939832883D7CF2091E4
:100A7000020230910302232B41F4209102013091B4
:100A80000301309303022093020220910001309170
:100A900001012115310541F42DB73EB74091040104
:100AA00050910501241B350BE0910202F0910302E5
:100AB000E217F307A0F42E1B3F0B2817390778F035
:100AC000AC014E5F5F4F2417350748F04E0F5F1F94
:100AD0005093030240930202819391939FCFF0E0E1
:100AE000E0E09CCFCF93DF930097E9F0FC013297D1
:100AF00013821282A0910402B0910502ED0130E050
:100B000020E01097A1F420813181820F931F209162
:100B10000202309103022817390709F061C0F093EF
:100B20000302E0930202DF91CF910895EA01CE170C
:100B3000DF07E8F54A815B819E0141155105B1F758
:100B4000E901FB83EA8349915991C40FD51FEC1742
:100B5000FD0761F4808191810296840F951FE90160
:100B600099838883828193819B838A83F0E0E0E08C
:100B700012968D919C9113970097B9F52D913C9108
:100B80001197CD010296820F931F2091020230919E
:100B900003022817390739F6309751F510920502EC
:100BA00010920402B0930302A0930202BCCFD3833D
:100BB000C28340815181840F951FC817D90761F402
:100BC0004E5F5F4F88819981480F591F5183408341
:100BD0008A819B81938382832115310509F0B0CFEF
:100BE000F0930502E09304029ECFFD01DC01C0CF2B
:100BF00013821282D7CFB0E0A0E0E1E0F6E00C94DF
:100C00009B048C01009751F4CB010E94D6048C0107
:100C1000C801CDB7DEB7E0E10C94B704FC01E60FE4
:100C2000F71F9C0122503109E217F30708F49DC019
:100C3000D901CD91DC911197C617D70798F0C5302F
:100C4000D10530F3CE0104978617970708F3C61B2A
:100C5000D70B2297C193D1936D937C93CF010E94C0
:100C60007205D6CF5B01AC1ABD0A4C018C0E9D1EDD
:100C7000A0910402B0910502512C412CF12CE12CE1
:100C8000109731F580910202909103028815990521
:100C900009F05CC04616570608F058C08091000164
:100CA00090910101009741F48DB79EB740910401E6
:100CB00050910501841B950BE817F90708F055C002
:100CC000F0930302E0930202F90171836083A0CFE5
:100CD0008D919C91119712966C90129713967C901F
:100CE0001397A815B90559F56C0142E0C40ED11C43
:100CF000CA14DB0420F1AC014A195B09DA0112962F
:100D0000159780F06282738251834083D9016D937D
:100D10007C93E114F10471F0D7011396FC93EE93E8
:100D2000129776CF22968C0F9D1FF90191838083B5
:100D3000F301EFCFF0930502E093040269CF481668
:100D4000590608F42C017D01D3019ACFCB010E94F2
:100D5000D6047C01009749F0AE01B8010E94B806A4
:100D6000C8010E947205870153CF10E000E050CF08
:100D7000FB01DC0102C001900D9241505040D8F7B8
:100D80000895FB01DC018D91019080190110D9F3C8
:100D9000990B0895FB01DC0101900D920020E1F711
:060DA0000895F894FFCF56
:100DA60000000602800000000000D401F4002101CA
:100DB60021029201300184010D0A005265616479B5
:100DC60020746F207265636569766520636F6D6D4B
:100DD600616E64732E006F6E004C4544206973206B
:100DE6007475726E6564204F4E004C4544206973DD
:0C0DF600207475726E6564204F46460044
:00000001FF
